:10000000372100001305500093054000EF00C006A3
:100010006FF01FFF411900000072697363760001E1
:100020000F00000005727633326932703000000034
:10003000130141FF2320D1002322E1002324F100FA
:1000400033070500B38705001305000093F617007A
:10005000638406003305E50093D7170013171700D4
:10006000E39607FE832601000327410083278100D2
:100070001301C10067800000B701420023A2A10064
:1000800023A4B1001305100023A6A10023A601009C
:100090009302100003A3410133735300E30A03FEEC
:1000A00003A5010167800000411900000072697317
:1000B000637600010F0000000572763332693270FA
:0200C00030000E
:00000001FF
